{"abi":[{"inputs":[{"internalType":"address","name":"_beanAddress","type":"address"},{"internalType":"address","name":"_incinerator","type":"address"}],"stateMutability":"nonpayable","type":"constructor"},{"anonymous":false,"inputs":[{"indexed":false,"internalType":"uint256","name":"orderId","type":"uint256"}],"name":"orderFulfilled","type":"event"},{"anonymous":false,"inputs":[{"indexed":false,"internalType":"uint256","name":"orderId","type":"uint256"},{"indexed":false,"internalType":"uint256","name":"productId","type":"uint256"},{"indexed":false,"internalType":"uint256","name":"userId","type":"uint256"}],"name":"orderPlaced","type":"event"},{"anonymous":false,"inputs":[{"indexed":false,"internalType":"uint256","name":"productId","type":"uint256"},{"indexed":false,"internalType":"string","name":"productName","type":"string"},{"indexed":false,"internalType":"uint256","name":"productPrice","type":"uint256"}],"name":"productCreated","type":"event"},{"anonymous":false,"inputs":[{"indexed":false,"internalType":"address","name":"user","type":"address"},{"indexed":false,"internalType":"uint256","name":"userId","type":"uint256"}],"name":"userCreated","type":"event"},{"inputs":[],"name":"collateral","outputs":[{"internalType":"uint256","name":"","type":"uint256"}],"stateMutability":"view","type":"function"},{"inputs":[{"internalType":"string","name":"_name","type":"string"},{"internalType":"uint256","name":"_price","type":"uint256"}],"name":"createProduct","outputs":[],"stateMutability":"nonpayable","type":"function"},{"inputs":[],"name":"discountPerToken","outputs":[{"internalType":"uint256","name":"","type":"uint256"}],"stateMutability":"view","type":"function"},{"inputs":[{"internalType":"uint256","name":"_orderId","type":"uint256"}],"name":"fulfillOrder","outputs":[],"stateMutability":"payable","type":"function"},{"inputs":[],"name":"incinerator","outputs":[{"internalType":"address","name":"","type":"address"}],"stateMutability":"view","type":"function"},{"inputs":[],"name":"orderCount","outputs":[{"internalType":"uint256","name":"","type":"uint256"}],"stateMutability":"view","type":"function"},{"inputs":[{"internalType":"uint256","name":"","type":"uint256"}],"name":"orderIdToProductId","outputs":[{"internalType":"uint256","name":"","type":"uint256"}],"stateMutability":"view","type":"function"},{"inputs":[{"internalType":"uint256","name":"","type":"uint256"}],"name":"orderIdTostatus","outputs":[{"internalType":"enum Cryptobucks.OrderStatus","name":"","type":"uint8"}],"stateMutability":"view","type":"function"},{"inputs":[{"internalType":"uint256","name":"","type":"uint256"}],"name":"orderIdTouserId","outputs":[{"internalType":"uint256","name":"","type":"uint256"}],"stateMutability":"view","type":"function"},{"inputs":[{"internalType":"uint256","name":"_productId","type":"uint256"}],"name":"placeOrder","outputs":[],"stateMutability":"payable","type":"function"},{"inputs":[],"name":"productCount","outputs":[{"internalType":"uint256","name":"","type":"uint256"}],"stateMutability":"view","type":"function"},{"inputs":[{"internalType":"uint256","name":"","type":"uint256"}],"name":"productIdToName","outputs":[{"internalType":"string","name":"","type":"string"}],"stateMutability":"view","type":"function"},{"inputs":[{"internalType":"uint256","name":"","type":"uint256"}],"name":"productIdToPrice","outputs":[{"internalType":"uint256","name":"","type":"uint256"}],"stateMutability":"view","type":"function"},{"inputs":[{"internalType":"uint256","name":"_tokenNumber","type":"uint256"}],"name":"redeemTokens","outputs":[],"stateMutability":"nonpayable","type":"function"},{"inputs":[{"internalType":"uint256","name":"_collateral","type":"uint256"},{"internalType":"uint256","name":"_discount","type":"uint256"},{"internalType":"uint256","name":"_tokenPerUnit","type":"uint256"}],"name":"setStoreData","outputs":[],"stateMutability":"nonpayable","type":"function"},{"inputs":[],"name":"tokenPerUnitPrice","outputs":[{"internalType":"uint256","name":"","type":"uint256"}],"stateMutability":"view","type":"function"},{"inputs":[],"name":"userCount","outputs":[{"internalType":"uint256","name":"","type":"uint256"}],"stateMutability":"view","type":"function"},{"inputs":[{"internalType":"uint256","name":"","type":"uint256"}],"name":"userIdToDiscount","outputs":[{"internalType":"uint256","name":"","type":"uint256"}],"stateMutability":"view","type":"function"},{"inputs":[{"internalType":"uint256","name":"","type":"uint256"}],"name":"userIdToLocation","outputs":[{"internalType":"string","name":"","type":"string"}],"stateMutability":"view","type":"function"},{"inputs":[{"internalType":"uint256","name":"","type":"uint256"}],"name":"userIdToName","outputs":[{"internalType":"string","name":"","type":"string"}],"stateMutability":"view","type":"function"},{"inputs":[{"internalType":"uint256","name":"","type":"uint256"}],"name":"userIdToPhone","outputs":[{"internalType":"uint256","name":"","type":"uint256"}],"stateMutability":"view","type":"function"},{"inputs":[{"internalType":"string","name":"_name","type":"string"},{"internalType":"uint256","name":"_phoneNumber","type":"uint256"},{"internalType":"string","name":"_location","type":"string"}],"name":"userSignUp","outputs":[],"stateMutability":"nonpayable","type":"function"},{"inputs":[{"internalType":"address","name":"","type":"address"}],"name":"userToId","outputs":[{"internalType":"uint256","name":"","type":"uint256"}],"stateMutability":"view","type":"function"},{"inputs":[{"internalType":"uint256","name":"","type":"uint256"}],"name":"useridToUserAddress","outputs":[{"internalType":"address","name":"","type":"address"}],"stateMutability":"view","type":"function"}],"bytecode":"608060405234801561001057600080fd5b5060405161136338038061136383398101604081905261002f91610095565b6000600281905580546001600160a01b039384166001600160a01b0319918216178255600b82905560098054821633179055601091909155600180549290931691161790556100c8565b80516001600160a01b038116811461009057600080fd5b919050565b600080604083850312156100a857600080fd5b6100b183610079565b91506100bf60208401610079565b90509250929050565b61128c806100d76000396000f3fe60806040526004361061014b5760003560e01c806377b0cb56116100b6578063ba2255f41161006f578063ba2255f414610409578063bb331beb1461041c578063bc2c86c614610449578063d8dfeb4514610469578063e0f6ef871461047f578063e9300c6c1461049557600080fd5b806377b0cb56146103055780638ee77d0214610332578063913d58071461036f5780639bdf03871461039c578063a6e158f8146103c9578063b3302c02146103e957600080fd5b80632453ffa8116101085780632453ffa814610237578063405fc2a91461024d578063590301ad1461026f5780636311e830146102a55780636cd351d2146102b85780636dc7cacb146102d857600080fd5b8063059c16b81461015057806307973ccf146101795780630b4805d31461018f5780631577b7c1146101bc5780631aa29ed8146101d25780631d44810d146101ff575b600080fd5b34801561015c57600080fd5b50610166600c5481565b6040519081526020015b60405180910390f35b34801561018557600080fd5b5061016660025481565b34801561019b57600080fd5b506101666101aa366004610ee2565b60036020526000908152604090205481565b3480156101c857600080fd5b50610166600d5481565b3480156101de57600080fd5b506101f26101ed366004610f12565b6104b5565b6040516101709190610f78565b34801561020b57600080fd5b5060015461021f906001600160a01b031681565b6040516001600160a01b039091168152602001610170565b34801561024357600080fd5b5061016660105481565b34801561025957600080fd5b5061026d61026836600461102e565b61054f565b005b34801561027b57600080fd5b5061021f61028a366004610f12565b6004602052600090815260409020546001600160a01b031681565b61026d6102b3366004610f12565b61067a565b3480156102c457600080fd5b506101f26102d3366004610f12565b6108bd565b3480156102e457600080fd5b506101666102f3366004610f12565b60086020526000908152604090205481565b34801561031157600080fd5b50610166610320366004610f12565b60136020526000908152604090205481565b34801561033e57600080fd5b5061036261034d366004610f12565b60126020526000908152604090205460ff1681565b60405161017091906110b1565b34801561037b57600080fd5b5061016661038a366004610f12565b60116020526000908152604090205481565b3480156103a857600080fd5b506101666103b7366004610f12565b60066020526000908152604090205481565b3480156103d557600080fd5b5061026d6103e4366004610f12565b6108d6565b3480156103f557600080fd5b506101f2610404366004610f12565b6109be565b61026d610417366004610f12565b6109d7565b34801561042857600080fd5b50610166610437366004610f12565b600f6020526000908152604090205481565b34801561045557600080fd5b5061026d6104643660046110d9565b610ca0565b34801561047557600080fd5b50610166600a5481565b34801561048b57600080fd5b50610166600b5481565b3480156104a157600080fd5b5061026d6104b0366004611105565b610d08565b600760205260009081526040902080546104ce9061114a565b80601f01602080910402602001604051908101604052809291908181526020018280546104fa9061114a565b80156105475780601f1061051c57610100808354040283529160200191610547565b820191906000526020600020905b81548152906001019060200180831161052a57829003601f168201915b505050505081565b33600090815260036020526040902054156105a75760405162461bcd60e51b81526020600482015260136024820152725573657220616c72656164792065786973747360681b60448201526064015b60405180910390fd5b6002546105b590600161119b565b60028181553360008181526003602090815260408083208690559482526004815284822080546001600160a01b0319169093179092559154825260058152919020845161060492860190610e49565b506002805460009081526006602090815260408083208690559254825260078152919020825161063692840190610e49565b506002546040805133815260208101929092527f855ad14a2a3bc48e626bb0bbed39bd4603449f8f648575e03674e8b478d856f191015b60405180910390a1505050565b600160008281526012602052604090205460ff16600281111561069f5761069f61109b565b146106f65760405162461bcd60e51b815260206004820152602160248201527f43616e6e6f742066756c66696c6c20616e20756e706c61636564206f726465726044820152601760f91b606482015260840161059e565b600081815260136020908152604080832054835260049091529020546001600160a01b031633146107695760405162461bcd60e51b815260206004820152601d60248201527f596f7520646964206e6f7420706c6163652074686973206f726465722e000000604482015260640161059e565b6000818152601260209081526040808320805460ff1916600217905560118252808320548352600f909152812054600a546107a6906001906111b3565b6107b091906111ca565b604051909150339082156108fc029083906000818181858888f193505050501580156107e0573d6000803e3d6000fd5b506000828152601160209081526040808320548352600f909152812054600d5460649161080c916111ca565b61081691906111e9565b60005460405163a9059cbb60e01b8152336004820152602481018390529192506001600160a01b03169063a9059cbb906044016020604051808303816000875af1158015610868573d6000803e3d6000fd5b505050506040513d601f19601f8201168201806040525081019061088c919061120b565b506040518381527f5652626fd6ff1926f8306c0f9eeaf8dae35f4044b49cc9bdf0dc4773754ebff79060200161066d565b600560205260009081526040902080546104ce9061114a565b6000546001546040516323b872dd60e01b81523360048201526001600160a01b039182166024820152604481018490529116906323b872dd906064016020604051808303816000875af1158015610931573d6000803e3d6000fd5b505050506040513d601f19601f82011682018060405250810190610955919061120b565b506000606482600c5461096891906111ca565b61097291906111e9565b336000908152600360209081526040808320548352600890915290205490915061099d90829061119b565b33600090815260036020908152604080832054835260089091529020555050565b600e60205260009081526040902080546104ce9061114a565b33600090815260036020526040902054610a3f5760405162461bcd60e51b815260206004820152602360248201527f5573657220646f65736e27742065786973742e20506c65617365207369676e206044820152623ab81760e91b606482015260840161059e565b6000818152600f6020526040902054610a935760405162461bcd60e51b8152602060048201526016602482015275283937b23ab1ba103237b2b9b713ba1032bc34b9ba1760511b604482015260640161059e565b3360009081526003602090815260408083205483526008825280832054848452600f90925290912054811115610ad457506000818152600f60205260409020545b6000828152600f6020526040812054610aee9083906111b3565b6000848152600f6020526040812054600a549293509091610b11906001906111b3565b610b1b91906111ca565b610b25908361119b565b905080341015610b775760405162461bcd60e51b815260206004820152601f60248201527f416d6f756e74206c657373207468616e2070726f647563742070726963652e00604482015260640161059e565b601054610b8590600161119b565b601081815560009182526011602090815260408084208890558254845260128252808420805460ff1916600117905533845260038252808420549254845260139091528083209190915560095490516001600160a01b039091169184156108fc02918591818181858888f19350505050158015610c06573d6000803e3d6000fd5b503360009081526003602090815260408083205483526008909152902054610c2f9084906111b3565b33600081815260036020818152604080842080548552600883528185209690965560105494909352908152925481519283529282018790528101919091527ffe89b83fee13b689659ea86930ac2a8d7813de86b42198d5ae4461712a4f8c749060600160405180910390a150505050565b6009546001600160a01b03163314610cfa5760405162461bcd60e51b815260206004820181905260248201527f4f6e6c79206f776e65722063616e207365742074686573652076616c7565732e604482015260640161059e565b600a92909255600c55600d55565b6009546001600160a01b03163314610d705760405162461bcd60e51b815260206004820152602560248201527f4f6e6c792073746f7265206f776e65722063616e206372656174652070726f646044820152643ab1ba399760d91b606482015260840161059e565b60008111610dc05760405162461bcd60e51b815260206004820181905260248201527f5468652070726f647563742073686f756c64206861766520612070726963652e604482015260640161059e565b600b54610dce90600161119b565b600b8190556000908152600e602090815260409091208351610df292850190610e49565b50600b80546000908152600f602052604090819020839055905490517f6bb523b9d31937b9ce037cd5a3401b87d58c1a8cd66c34ef562c226f65dd93ab91610e3d918590859061122d565b60405180910390a15050565b828054610e559061114a565b90600052602060002090601f016020900481019282610e775760008555610ebd565b82601f10610e9057805160ff1916838001178555610ebd565b82800160010185558215610ebd579182015b82811115610ebd578251825591602001919060010190610ea2565b50610ec9929150610ecd565b5090565b5b80821115610ec95760008155600101610ece565b600060208284031215610ef457600080fd5b81356001600160a01b0381168114610f0b57600080fd5b9392505050565b600060208284031215610f2457600080fd5b5035919050565b6000815180845260005b81811015610f5157602081850181015186830182015201610f35565b81811115610f63576000602083870101525b50601f01601f19169290920160200192915050565b602081526000610f0b6020830184610f2b565b634e487b7160e01b600052604160045260246000fd5b600082601f830112610fb257600080fd5b813567ffffffffffffffff80821115610fcd57610fcd610f8b565b604051601f8301601f19908116603f01168101908282118183101715610ff557610ff5610f8b565b8160405283815286602085880101111561100e57600080fd5b836020870160208301376000602085830101528094505050505092915050565b60008060006060848603121561104357600080fd5b833567ffffffffffffffff8082111561105b57600080fd5b61106787838801610fa1565b945060208601359350604086013591508082111561108457600080fd5b5061109186828701610fa1565b9150509250925092565b634e487b7160e01b600052602160045260246000fd5b60208101600383106110d357634e487b7160e01b600052602160045260246000fd5b91905290565b6000806000606084860312156110ee57600080fd5b505081359360208301359350604090920135919050565b6000806040838503121561111857600080fd5b823567ffffffffffffffff81111561112f57600080fd5b61113b85828601610fa1565b95602094909401359450505050565b600181811c9082168061115e57607f821691505b6020821081141561117f57634e487b7160e01b600052602260045260246000fd5b50919050565b634e487b7160e01b600052601160045260246000fd5b600082198211156111ae576111ae611185565b500190565b6000828210156111c5576111c5611185565b500390565b60008160001904831182151516156111e4576111e4611185565b500290565b60008261120657634e487b7160e01b600052601260045260246000fd5b500490565b60006020828403121561121d57600080fd5b81518015158114610f0b57600080fd5b8381526060602082015260006112466060830185610f2b565b905082604083015294935050505056fea264697066735822122007d9fa36d08dd77eca1358efe3d2121f05a2423679c97fae387e0fb356b36ac464736f6c634300080a0033","bytecodeSha1":"9441414bbe109813fbc0af1d27ed08cea331ef74","compiler":{"evm_version":"istanbul","optimizer":{"enabled":true,"runs":200},"version":"0.8.10+commit.fc410830"},"contractName":"Cryptobucks","language":"Solidity","natspec":{"kind":"dev","methods":{},"version":1},"opcodes":"PUSH1 0x80 PUSH1 0x40 MSTORE PUSH1 0x4 CALLDATASIZE LT PUSH2 0x14B JUMPI PUSH1 0x0 CALLDATALOAD PUSH1 0xE0 SHR DUP1 PUSH4 0x77B0CB56 GT PUSH2 0xB6 JUMPI DUP1 PUSH4 0xBA2255F4 GT PUSH2 0x6F JUMPI DUP1 PUSH4 0xBA2255F4 EQ PUSH2 0x409 JUMPI DUP1 PUSH4 0xBB331BEB EQ PUSH2 0x41C JUMPI DUP1 PUSH4 0xBC2C86C6 EQ PUSH2 0x449 JUMPI DUP1 PUSH4 0xD8DFEB45 EQ PUSH2 0x469 JUMPI DUP1 PUSH4 0xE0F6EF87 EQ PUSH2 0x47F JUMPI DUP1 PUSH4 0xE9300C6C EQ PUSH2 0x495 JUMPI PUSH1 0x0 DUP1 REVERT JUMPDEST DUP1 PUSH4 0x77B0CB56 EQ PUSH2 0x305 JUMPI DUP1 PUSH4 0x8EE77D02 EQ PUSH2 0x332 JUMPI DUP1 PUSH4 0x913D5807 EQ PUSH2 0x36F JUMPI DUP1 PUSH4 0x9BDF0387 EQ PUSH2 0x39C JUMPI DUP1 PUSH4 0xA6E158F8 EQ PUSH2 0x3C9 JUMPI DUP1 PUSH4 0xB3302C02 EQ PUSH2 0x3E9 JUMPI PUSH1 0x0 DUP1 REVERT JUMPDEST DUP1 PUSH4 0x2453FFA8 GT PUSH2 0x108 JUMPI DUP1 PUSH4 0x2453FFA8 EQ PUSH2 0x237 JUMPI DUP1 PUSH4 0x405FC2A9 EQ PUSH2 0x24D JUMPI DUP1 PUSH4 0x590301AD EQ PUSH2 0x26F JUMPI DUP1 PUSH4 0x6311E830 EQ PUSH2 0x2A5 JUMPI DUP1 PUSH4 0x6CD351D2 EQ PUSH2 0x2B8 JUMPI DUP1 PUSH4 0x6DC7CACB EQ PUSH2 0x2D8 JUMPI PUSH1 0x0 DUP1 REVERT JUMPDEST DUP1 PUSH4 0x59C16B8 EQ PUSH2 0x150 JUMPI DUP1 PUSH4 0x7973CCF EQ PUSH2 0x179 JUMPI DUP1 PUSH4 0xB4805D3 EQ PUSH2 0x18F JUMPI DUP1 PUSH4 0x1577B7C1 EQ PUSH2 0x1BC JUMPI DUP1 PUSH4 0x1AA29ED8 EQ PUSH2 0x1D2 JUMPI DUP1 PUSH4 0x1D44810D EQ PUSH2 0x1FF JUMPI JUMPDEST PUSH1 0x0 DUP1 REVERT JUMPDEST CALLVALUE DUP1 ISZERO PUSH2 0x15C JUMPI PUSH1 0x0 DUP1 REVERT JUMPDEST POP PUSH2 0x166 PUSH1 0xC SLOAD DUP2 JUMP JUMPDEST PUSH1 0x40 MLOAD SWAP1 DUP2 MSTORE PUSH1 0x20 ADD JUMPDEST PUSH1 0x40 MLOAD DUP1 SWAP2 SUB SWAP1 RETURN JUMPDEST CALLVALUE DUP1 ISZERO PUSH2 0x185 JUMPI PUSH1 0x0 DUP1 REVERT JUMPDEST POP PUSH2 0x166 PUSH1 0x2 SLOAD DUP2 JUMP JUMPDEST CALLVALUE DUP1 ISZERO PUSH2 0x19B JUMPI PUSH1 0x0 DUP1 REVERT JUMPDEST POP PUSH2 0x166 PUSH2 0x1AA CALLDATASIZE PUSH1 0x4 PUSH2 0xEE2 JUMP JUMPDEST PUSH1 0x3 PUSH1 0x20 MSTORE PUSH1 0x0 SWAP1 DUP2 MSTORE PUSH1 0x40 SWAP1 KECCAK256 SLOAD DUP2 JUMP JUMPDEST CALLVALUE DUP1 ISZERO PUSH2 0x1C8 JUMPI PUSH1 0x0 DUP1 REVERT JUMPDEST POP PUSH2 0x166 PUSH1 0xD SLOAD DUP2 JUMP JUMPDEST CALLVALUE DUP1 ISZERO PUSH2 0x1DE JUMPI PUSH1 0x0 DUP1 REVERT JUMPDEST POP PUSH2 0x1F2 PUSH2 0x1ED CALLDATASIZE PUSH1 0x4 PUSH2 0xF12 JUMP JUMPDEST PUSH2 0x4B5 JUMP JUMPDEST PUSH1 0x40 MLOAD PUSH2 0x170 SWAP2 SWAP1 PUSH2 0xF78 JUMP JUMPDEST CALLVALUE DUP1 ISZERO PUSH2 0x20B JUMPI PUSH1 0x0 DUP1 REVERT JUMPDEST POP PUSH1 0x1 SLOAD PUSH2 0x21F SWAP1 PUSH1 0x1 PUSH1 0x1 PUSH1 0xA0 SHL SUB AND DUP2 JUMP JUMPDEST PUSH1 0x40 MLOAD PUSH1 0x1 PUSH1 0x1 PUSH1 0xA0 SHL SUB SWAP1 SWAP2 AND DUP2 MSTORE PUSH1 0x20 ADD PUSH2 0x170 JUMP JUMPDEST CALLVALUE DUP1 ISZERO PUSH2 0x243 JUMPI PUSH1 0x0 DUP1 REVERT JUMPDEST POP PUSH2 0x166 PUSH1 0x10 SLOAD DUP2 JUMP JUMPDEST CALLVALUE DUP1 ISZERO PUSH2 0x259 JUMPI PUSH1 0x0 DUP1 REVERT JUMPDEST POP PUSH2 0x26D PUSH2 0x268 CALLDATASIZE PUSH1 0x4 PUSH2 0x102E JUMP JUMPDEST PUSH2 0x54F JUMP JUMPDEST STOP JUMPDEST CALLVALUE DUP1 ISZERO PUSH2 0x27B JUMPI PUSH1 0x0 DUP1 REVERT JUMPDEST POP PUSH2 0x21F PUSH2 0x28A CALLDATASIZE PUSH1 0x4 PUSH2 0xF12 JUMP JUMPDEST PUSH1 0x4 PUSH1 0x20 MSTORE PUSH1 0x0 SWAP1 DUP2 MSTORE PUSH1 0x40 SWAP1 KECCAK256 SLOAD PUSH1 0x1 PUSH1 0x1 PUSH1 0xA0 SHL SUB AND DUP2 JUMP JUMPDEST PUSH2 0x26D PUSH2 0x2B3 CALLDATASIZE PUSH1 0x4 PUSH2 0xF12 JUMP JUMPDEST PUSH2 0x67A JUMP JUMPDEST CALLVALUE DUP1 ISZERO PUSH2 0x2C4 JUMPI PUSH1 0x0 DUP1 REVERT JUMPDEST POP PUSH2 0x1F2 PUSH2 0x2D3 CALLDATASIZE PUSH1 0x4 PUSH2 0xF12 JUMP JUMPDEST PUSH2 0x8BD JUMP JUMPDEST CALLVALUE DUP1 ISZERO PUSH2 0x2E4 JUMPI PUSH1 0x0 DUP1 REVERT JUMPDEST POP PUSH2 0x166 PUSH2 0x2F3 CALLDATASIZE PUSH1 0x4 PUSH2 0xF12 JUMP JUMPDEST PUSH1 0x8 PUSH1 0x20 MSTORE PUSH1 0x0 SWAP1 DUP2 MSTORE PUSH1 0x40 SWAP1 KECCAK256 SLOAD DUP2 JUMP JUMPDEST CALLVALUE DUP1 ISZERO PUSH2 0x311 JUMPI PUSH1 0x0 DUP1 REVERT JUMPDEST POP PUSH2 0x166 PUSH2 0x320 CALLDATASIZE PUSH1 0x4 PUSH2 0xF12 JUMP JUMPDEST PUSH1 0x13 PUSH1 0x20 MSTORE PUSH1 0x0 SWAP1 DUP2 MSTORE PUSH1 0x40 SWAP1 KECCAK256 SLOAD DUP2 JUMP JUMPDEST CALLVALUE DUP1 ISZERO PUSH2 0x33E JUMPI PUSH1 0x0 DUP1 REVERT JUMPDEST POP PUSH2 0x362 PUSH2 0x34D CALLDATASIZE PUSH1 0x4 PUSH2 0xF12 JUMP JUMPDEST PUSH1 0x12 PUSH1 0x20 MSTORE PUSH1 0x0 SWAP1 DUP2 MSTORE PUSH1 0x40 SWAP1 KECCAK256 SLOAD PUSH1 0xFF AND DUP2 JUMP JUMPDEST PUSH1 0x40 MLOAD PUSH2 0x170 SWAP2 SWAP1 PUSH2 0x10B1 JUMP JUMPDEST CALLVALUE DUP1 ISZERO PUSH2 0x37B JUMPI PUSH1 0x0 DUP1 REVERT JUMPDEST POP PUSH2 0x166 PUSH2 0x38A CALLDATASIZE PUSH1 0x4 PUSH2 0xF12 JUMP JUMPDEST PUSH1 0x11 PUSH1 0x20 MSTORE PUSH1 0x0 SWAP1 DUP2 MSTORE PUSH1 0x40 SWAP1 KECCAK256 SLOAD DUP2 JUMP JUMPDEST CALLVALUE DUP1 ISZERO PUSH2 0x3A8 JUMPI PUSH1 0x0 DUP1 REVERT JUMPDEST POP PUSH2 0x166 PUSH2 0x3B7 CALLDATASIZE PUSH1 0x4 PUSH2 0xF12 JUMP JUMPDEST PUSH1 0x6 PUSH1 0x20 MSTORE PUSH1 0x0 SWAP1 DUP2 MSTORE PUSH1 0x40 SWAP1 KECCAK256 SLOAD DUP2 JUMP JUMPDEST CALLVALUE DUP1 ISZERO PUSH2 0x3D5 JUMPI PUSH1 0x0 DUP1 REVERT JUMPDEST POP PUSH2 0x26D PUSH2 0x3E4 CALLDATASIZE PUSH1 0x4 PUSH2 0xF12 JUMP JUMPDEST PUSH2 0x8D6 JUMP JUMPDEST CALLVALUE DUP1 ISZERO PUSH2 0x3F5 JUMPI PUSH1 0x0 DUP1 REVERT JUMPDEST POP PUSH2 0x1F2 PUSH2 0x404 CALLDATASIZE PUSH1 0x4 PUSH2 0xF12 JUMP JUMPDEST PUSH2 0x9BE JUMP JUMPDEST PUSH2 0x26D PUSH2 0x417 CALLDATASIZE PUSH1 0x4 PUSH2 0xF12 JUMP JUMPDEST PUSH2 0x9D7 JUMP JUMPDEST CALLVALUE DUP1 ISZERO PUSH2 0x428 JUMPI PUSH1 0x0 DUP1 REVERT JUMPDEST POP PUSH2 0x166 PUSH2 0x437 CALLDATASIZE PUSH1 0x4 PUSH2 0xF12 JUMP JUMPDEST PUSH1 0xF PUSH1 0x20 MSTORE PUSH1 0x0 SWAP1 DUP2 MSTORE PUSH1 0x40 SWAP1 KECCAK256 SLOAD DUP2 JUMP JUMPDEST CALLVALUE DUP1 ISZERO PUSH2 0x455 JUMPI PUSH1 0x0 DUP1 REVERT JUMPDEST POP PUSH2 0x26D PUSH2 0x464 CALLDATASIZE PUSH1 0x4 PUSH2 0x10D9 JUMP JUMPDEST PUSH2 0xCA0 JUMP JUMPDEST CALLVALUE DUP1 ISZERO PUSH2 0x475 JUMPI PUSH1 0x0 DUP1 REVERT JUMPDEST POP PUSH2 0x166 PUSH1 0xA SLOAD DUP2 JUMP JUMPDEST CALLVALUE DUP1 ISZERO PUSH2 0x48B JUMPI PUSH1 0x0 DUP1 REVERT JUMPDEST POP PUSH2 0x166 PUSH1 0xB SLOAD DUP2 JUMP JUMPDEST CALLVALUE DUP1 ISZERO PUSH2 0x4A1 JUMPI PUSH1 0x0 DUP1 REVERT JUMPDEST POP PUSH2 0x26D PUSH2 0x4B0 CALLDATASIZE PUSH1 0x4 PUSH2 0x1105 JUMP JUMPDEST PUSH2 0xD08 JUMP JUMPDEST PUSH1 0x7 PUSH1 0x20 MSTORE PUSH1 0x0 SWAP1 DUP2 MSTORE PUSH1 0x40 SWAP1 KECCAK256 DUP1 SLOAD PUSH2 0x4CE SWAP1 PUSH2 0x114A JUMP JUMPDEST DUP1 PUSH1 0x1F ADD PUSH1 0x20 DUP1 SWAP2 DIV MUL PUSH1 0x20 ADD PUSH1 0x40 MLOAD SWAP1 DUP2 ADD PUSH1 0x40 MSTORE DUP1 SWAP3 SWAP2 SWAP1 DUP2 DUP2 MSTORE PUSH1 0x20 ADD DUP3 DUP1 SLOAD PUSH2 0x4FA SWAP1 PUSH2 0x114A JUMP JUMPDEST DUP1 ISZERO PUSH2 0x547 JUMPI DUP1 PUSH1 0x1F LT PUSH2 0x51C JUMPI PUSH2 0x100 DUP1 DUP4 SLOAD DIV MUL DUP4 MSTORE SWAP2 PUSH1 0x20 ADD SWAP2 PUSH2 0x547 JUMP JUMPDEST DUP3 ADD SWAP2 SWAP1 PUSH1 0x0 MSTORE PUSH1 0x20 PUSH1 0x0 KECCAK256 SWAP1 JUMPDEST DUP2 SLOAD DUP2 MSTORE SWAP1 PUSH1 0x1 ADD SWAP1 PUSH1 0x20 ADD DUP1 DUP4 GT PUSH2 0x52A JUMPI DUP3 SWAP1 SUB PUSH1 0x1F AND DUP3 ADD SWAP2 JUMPDEST POP POP POP POP POP DUP2 JUMP JUMPDEST CALLER PUSH1 0x0 SWAP1 DUP2 MSTORE PUSH1 0x3 PUSH1 0x20 MSTORE PUSH1 0x40 SWAP1 KECCAK256 SLOAD ISZERO PUSH2 0x5A7 JUMPI PUSH1 0x40 MLOAD PUSH3 0x461BCD PUSH1 0xE5 SHL DUP2 MSTORE PUSH1 0x20 PUSH1 0x4 DUP3 ADD MSTORE PUSH1 0x13 PUSH1 0x24 DUP3 ADD MSTORE PUSH19 0x5573657220616C726561647920657869737473 PUSH1 0x68 SHL PUSH1 0x44 DUP3 ADD MSTORE PUSH1 0x64 ADD JUMPDEST PUSH1 0x40 MLOAD DUP1 SWAP2 SUB SWAP1 REVERT JUMPDEST PUSH1 0x2 SLOAD PUSH2 0x5B5 SWAP1 PUSH1 0x1 PUSH2 0x119B JUMP JUMPDEST PUSH1 0x2 DUP2 DUP2 SSTORE CALLER PUSH1 0x0 DUP2 DUP2 MSTORE PUSH1 0x3 PUSH1 0x20 SWAP1 DUP2 MSTORE PUSH1 0x40 DUP1 DUP4 KECCAK256 DUP7 SWAP1 SSTORE SWAP5 DUP3 MSTORE PUSH1 0x4 DUP2 MSTORE DUP5 DUP3 KECCAK256 DUP1 SLOAD PUSH1 0x1 PUSH1 0x1 PUSH1 0xA0 SHL SUB NOT AND SWAP1 SWAP4 OR SWAP1 SWAP3 SSTORE SWAP2 SLOAD DUP3 MSTORE PUSH1 0x5 DUP2 MSTORE SWAP2 SWAP1 KECCAK256 DUP5 MLOAD PUSH2 0x604 SWAP3 DUP7 ADD SWAP1 PUSH2 0xE49 JUMP JUMPDEST POP PUSH1 0x2 DUP1 SLOAD PUSH1 0x0 SWAP1 DUP2 MSTORE PUSH1 0x6 PUSH1 0x20 SWAP1 DUP2 MSTORE PUSH1 0x40 DUP1 DUP4 KECCAK256 DUP7 SWAP1 SSTORE SWAP3 SLOAD DUP3 MSTORE PUSH1 0x7 DUP2 MSTORE SWAP2 SWAP1 KECCAK256 DUP3 MLOAD PUSH2 0x636 SWAP3 DUP5 ADD SWAP1 PUSH2 0xE49 JUMP JUMPDEST POP PUSH1 0x2 SLOAD PUSH1 0x40 DUP1 MLOAD CALLER DUP2 MSTORE PUSH1 0x20 DUP2 ADD SWAP3 SWAP1 SWAP3 MSTORE PUSH32 0x855AD14A2A3BC48E626BB0BBED39BD4603449F8F648575E03674E8B478D856F1 SWAP2 ADD JUMPDEST PUSH1 0x40 MLOAD DUP1 SWAP2 SUB SWAP1 LOG1 POP POP POP JUMP JUMPDEST PUSH1 0x1 PUSH1 0x0 DUP3 DUP2 MSTORE PUSH1 0x12 PUSH1 0x20 MSTORE PUSH1 0x40 SWAP1 KECCAK256 SLOAD PUSH1 0xFF AND PUSH1 0x2 DUP2 GT ISZERO PUSH2 0x69F JUMPI PUSH2 0x69F PUSH2 0x109B JUMP JUMPDEST EQ PUSH2 0x6F6 JUMPI PUSH1 0x40 MLOAD PUSH3 0x461BCD PUSH1 0xE5 SHL DUP2 MSTORE PUSH1 0x20 PUSH1 0x4 DUP3 ADD MSTORE PUSH1 0x21 PUSH1 0x24 DUP3 ADD MSTORE PUSH32 0x43616E6E6F742066756C66696C6C20616E20756E706C61636564206F72646572 PUSH1 0x44 DUP3 ADD MSTORE PUSH1 0x17 PUSH1 0xF9 SHL PUSH1 0x64 DUP3 ADD MSTORE PUSH1 0x84 ADD PUSH2 0x59E JUMP JUMPDEST PUSH1 0x0 DUP2 DUP2 MSTORE PUSH1 0x13 PUSH1 0x20 SWAP1 DUP2 MSTORE PUSH1 0x40 DUP1 DUP4 KECCAK256 SLOAD DUP4 MSTORE PUSH1 0x4 SWAP1 SWAP2 MSTORE SWAP1 KECCAK256 SLOAD PUSH1 0x1 PUSH1 0x1 PUSH1 0xA0 SHL SUB AND CALLER EQ PUSH2 0x769 JUMPI PUSH1 0x40 MLOAD PUSH3 0x461BCD PUSH1 0xE5 SHL DUP2 MSTORE PUSH1 0x20 PUSH1 0x4 DUP3 ADD MSTORE PUSH1 0x1D PUSH1 0x24 DUP3 ADD MSTORE PUSH32 0x596F7520646964206E6F7420706C6163652074686973206F726465722E000000 PUSH1 0x44 DUP3 ADD MSTORE PUSH1 0x64 ADD PUSH2 0x59E JUMP JUMPDEST PUSH1 0x0 DUP2 DUP2 MSTORE PUSH1 0x12 PUSH1 0x20 SWAP1 DUP2 MSTORE PUSH1 0x40 DUP1 DUP4 KECCAK256 DUP1 SLOAD PUSH1 0xFF NOT AND PUSH1 0x2 OR SWAP1 SSTORE PUSH1 0x11 DUP3 MSTORE DUP1 DUP4 KECCAK256 SLOAD DUP4 MSTORE PUSH1 0xF SWAP1 SWAP2 MSTORE DUP2 KECCAK256 SLOAD PUSH1 0xA SLOAD PUSH2 0x7A6 SWAP1 PUSH1 0x1 SWAP1 PUSH2 0x11B3 JUMP JUMPDEST PUSH2 0x7B0 SWAP2 SWAP1 PUSH2 0x11CA JUMP JUMPDEST PUSH1 0x40 MLOAD SWAP1 SWAP2 POP CALLER SWAP1 DUP3 ISZERO PUSH2 0x8FC MUL SWAP1 DUP4 SWAP1 PUSH1 0x0 DUP2 DUP2 DUP2 DUP6 DUP9 DUP9 CALL SWAP4 POP POP POP POP ISZERO DUP1 ISZERO PUSH2 0x7E0 JUMPI RETURNDATASIZE PUSH1 0x0 DUP1 RETURNDATACOPY RETURNDATASIZE PUSH1 0x0 REVERT JUMPDEST POP PUSH1 0x0 DUP3 DUP2 MSTORE PUSH1 0x11 PUSH1 0x20 SWAP1 DUP2 MSTORE PUSH1 0x40 DUP1 DUP4 KECCAK256 SLOAD DUP4 MSTORE PUSH1 0xF SWAP1 SWAP2 MSTORE DUP2 KECCAK256 SLOAD PUSH1 0xD SLOAD PUSH1 0x64 SWAP2 PUSH2 0x80C SWAP2 PUSH2 0x11CA JUMP JUMPDEST PUSH2 0x816 SWAP2 SWAP1 PUSH2 0x11E9 JUMP JUMPDEST PUSH1 0x0 SLOAD PUSH1 0x40 MLOAD PUSH4 0xA9059CBB PUSH1 0xE0 SHL DUP2 MSTORE CALLER PUSH1 0x4 DUP3 ADD MSTORE PUSH1 0x24 DUP2 ADD DUP4 SWAP1 MSTORE SWAP2 SWAP3 POP PUSH1 0x1 PUSH1 0x1 PUSH1 0xA0 SHL SUB AND SWAP1 PUSH4 0xA9059CBB SWAP1 PUSH1 0x44 ADD PUSH1 0x20 PUSH1 0x40 MLOAD DUP1 DUP4 SUB DUP2 PUSH1 0x0 DUP8 GAS CALL ISZERO DUP1 ISZERO PUSH2 0x868 JUMPI RETURNDATASIZE PUSH1 0x0 DUP1 RETURNDATACOPY RETURNDATASIZE PUSH1 0x0 REVERT JUMPDEST POP POP POP POP PUSH1 0x40 MLOAD RETURNDATASIZE PUSH1 0x1F NOT PUSH1 0x1F DUP3 ADD AND DUP3 ADD DUP1 PUSH1 0x40 MSTORE POP DUP2 ADD SWAP1 PUSH2 0x88C SWAP2 SWAP1 PUSH2 0x120B JUMP JUMPDEST POP PUSH1 0x40 MLOAD DUP4 DUP2 MSTORE PUSH32 0x5652626FD6FF1926F8306C0F9EEAF8DAE35F4044B49CC9BDF0DC4773754EBFF7 SWAP1 PUSH1 0x20 ADD PUSH2 0x66D JUMP JUMPDEST PUSH1 0x5 PUSH1 0x20 MSTORE PUSH1 0x0 SWAP1 DUP2 MSTORE PUSH1 0x40 SWAP1 KECCAK256 DUP1 SLOAD PUSH2 0x4CE SWAP1 PUSH2 0x114A JUMP JUMPDEST PUSH1 0x0 SLOAD PUSH1 0x1 SLOAD PUSH1 0x40 MLOAD PUSH4 0x23B872DD PUSH1 0xE0 SHL DUP2 MSTORE CALLER PUSH1 0x4 DUP3 ADD MSTORE PUSH1 0x1 PUSH1 0x1 PUSH1 0xA0 SHL SUB SWAP2 DUP3 AND PUSH1 0x24 DUP3 ADD MSTORE PUSH1 0x44 DUP2 ADD DUP5 SWAP1 MSTORE SWAP2 AND SWAP1 PUSH4 0x23B872DD SWAP1 PUSH1 0x64 ADD PUSH1 0x20 PUSH1 0x40 MLOAD DUP1 DUP4 SUB DUP2 PUSH1 0x0 DUP8 GAS CALL ISZERO DUP1 ISZERO PUSH2 0x931 JUMPI RETURNDATASIZE PUSH1 0x0 DUP1 RETURNDATACOPY RETURNDATASIZE PUSH1 0x0 REVERT JUMPDEST POP POP POP POP PUSH1 0x40 MLOAD RETURNDATASIZE PUSH1 0x1F NOT PUSH1 0x1F DUP3 ADD AND DUP3 ADD DUP1 PUSH1 0x40 MSTORE POP DUP2 ADD SWAP1 PUSH2 0x955 SWAP2 SWAP1 PUSH2 0x120B JUMP JUMPDEST POP PUSH1 0x0 PUSH1 0x64 DUP3 PUSH1 0xC SLOAD PUSH2 0x968 SWAP2 SWAP1 PUSH2 0x11CA JUMP JUMPDEST PUSH2 0x972 SWAP2 SWAP1 PUSH2 0x11E9 JUMP JUMPDEST CALLER PUSH1 0x0 SWAP1 DUP2 MSTORE PUSH1 0x3 PUSH1 0x20 SWAP1 DUP2 MSTORE PUSH1 0x40 DUP1 DUP4 KECCAK256 SLOAD DUP4 MSTORE PUSH1 0x8 SWAP1 SWAP2 MSTORE SWAP1 KECCAK256 SLOAD SWAP1 SWAP2 POP PUSH2 0x99D SWAP1 DUP3 SWAP1 PUSH2 0x119B JUMP JUMPDEST CALLER PUSH1 0x0 SWAP1 DUP2 MSTORE PUSH1 0x3 PUSH1 0x20 SWAP1 DUP2 MSTORE PUSH1 0x40 DUP1 DUP4 KECCAK256 SLOAD DUP4 MSTORE PUSH1 0x8 SWAP1 SWAP2 MSTORE SWAP1 KECCAK256 SSTORE POP POP JUMP JUMPDEST PUSH1 0xE PUSH1 0x20 MSTORE PUSH1 0x0 SWAP1 DUP2 MSTORE PUSH1 0x40 SWAP1 KECCAK256 DUP1 SLOAD PUSH2 0x4CE SWAP1 PUSH2 0x114A JUMP JUMPDEST CALLER PUSH1 0x0 SWAP1 DUP2 MSTORE PUSH1 0x3 PUSH1 0x20 MSTORE PUSH1 0x40 SWAP1 KECCAK256 SLOAD PUSH2 0xA3F JUMPI PUSH1 0x40 MLOAD PUSH3 0x461BCD PUSH1 0xE5 SHL DUP2 MSTORE PUSH1 0x20 PUSH1 0x4 DUP3 ADD MSTORE PUSH1 0x23 PUSH1 0x24 DUP3 ADD MSTORE PUSH32 0x5573657220646F65736E27742065786973742E20506C65617365207369676E20 PUSH1 0x44 DUP3 ADD MSTORE PUSH3 0x3AB817 PUSH1 0xE9 SHL PUSH1 0x64 DUP3 ADD MSTORE PUSH1 0x84 ADD PUSH2 0x59E JUMP JUMPDEST PUSH1 0x0 DUP2 DUP2 MSTORE PUSH1 0xF PUSH1 0x20 MSTORE PUSH1 0x40 SWAP1 KECCAK256 SLOAD PUSH2 0xA93 JUMPI PUSH1 0x40 MLOAD PUSH3 0x461BCD PUSH1 0xE5 SHL DUP2 MSTORE PUSH1 0x20 PUSH1 0x4 DUP3 ADD MSTORE PUSH1 0x16 PUSH1 0x24 DUP3 ADD MSTORE PUSH22 0x283937B23AB1BA103237B2B9B713BA1032BC34B9BA17 PUSH1 0x51 SHL PUSH1 0x44 DUP3 ADD MSTORE PUSH1 0x64 ADD PUSH2 0x59E JUMP JUMPDEST CALLER PUSH1 0x0 SWAP1 DUP2 MSTORE PUSH1 0x3 PUSH1 0x20 SWAP1 DUP2 MSTORE PUSH1 0x40 DUP1 DUP4 KECCAK256 SLOAD DUP4 MSTORE PUSH1 0x8 DUP3 MSTORE DUP1 DUP4 KECCAK256 SLOAD DUP5 DUP5 MSTORE PUSH1 0xF SWAP1 SWAP3 MSTORE SWAP1 SWAP2 KECCAK256 SLOAD DUP2 GT ISZERO PUSH2 0xAD4 JUMPI POP PUSH1 0x0 DUP2 DUP2 MSTORE PUSH1 0xF PUSH1 0x20 MSTORE PUSH1 0x40 SWAP1 KECCAK256 SLOAD JUMPDEST PUSH1 0x0 DUP3 DUP2 MSTORE PUSH1 0xF PUSH1 0x20 MSTORE PUSH1 0x40 DUP2 KECCAK256 SLOAD PUSH2 0xAEE SWAP1 DUP4 SWAP1 PUSH2 0x11B3 JUMP JUMPDEST PUSH1 0x0 DUP5 DUP2 MSTORE PUSH1 0xF PUSH1 0x20 MSTORE PUSH1 0x40 DUP2 KECCAK256 SLOAD PUSH1 0xA SLOAD SWAP3 SWAP4 POP SWAP1 SWAP2 PUSH2 0xB11 SWAP1 PUSH1 0x1 SWAP1 PUSH2 0x11B3 JUMP JUMPDEST PUSH2 0xB1B SWAP2 SWAP1 PUSH2 0x11CA JUMP JUMPDEST PUSH2 0xB25 SWAP1 DUP4 PUSH2 0x119B JUMP JUMPDEST SWAP1 POP DUP1 CALLVALUE LT ISZERO PUSH2 0xB77 JUMPI PUSH1 0x40 MLOAD PUSH3 0x461BCD PUSH1 0xE5 SHL DUP2 MSTORE PUSH1 0x20 PUSH1 0x4 DUP3 ADD MSTORE PUSH1 0x1F PUSH1 0x24 DUP3 ADD MSTORE PUSH32 0x416D6F756E74206C657373207468616E2070726F647563742070726963652E00 PUSH1 0x44 DUP3 ADD MSTORE PUSH1 0x64 ADD PUSH2 0x59E JUMP JUMPDEST PUSH1 0x10 SLOAD PUSH2 0xB85 SWAP1 PUSH1 0x1 PUSH2 0x119B JUMP JUMPDEST PUSH1 0x10 DUP2 DUP2 SSTORE PUSH1 0x0 SWAP2 DUP3 MSTORE PUSH1 0x11 PUSH1 0x20 SWAP1 DUP2 MSTORE PUSH1 0x40 DUP1 DUP5 KECCAK256 DUP9 SWAP1 SSTORE DUP3 SLOAD DUP5 MSTORE PUSH1 0x12 DUP3 MSTORE DUP1 DUP5 KECCAK256 DUP1 SLOAD PUSH1 0xFF NOT AND PUSH1 0x1 OR SWAP1 SSTORE CALLER DUP5 MSTORE PUSH1 0x3 DUP3 MSTORE DUP1 DUP5 KECCAK256 SLOAD SWAP3 SLOAD DUP5 MSTORE PUSH1 0x13 SWAP1 SWAP2 MSTORE DUP1 DUP4 KECCAK256 SWAP2 SWAP1 SWAP2 SSTORE PUSH1 0x9 SLOAD SWAP1 MLOAD PUSH1 0x1 PUSH1 0x1 PUSH1 0xA0 SHL SUB SWAP1 SWAP2 AND SWAP2 DUP5 ISZERO PUSH2 0x8FC MUL SWAP2 DUP6 SWAP2 DUP2 DUP2 DUP2 DUP6 DUP9 DUP9 CALL SWAP4 POP POP POP POP ISZERO DUP1 ISZERO PUSH2 0xC06 JUMPI RETURNDATASIZE PUSH1 0x0 DUP1 RETURNDATACOPY RETURNDATASIZE PUSH1 0x0 REVERT JUMPDEST POP CALLER PUSH1 0x0 SWAP1 DUP2 MSTORE PUSH1 0x3 PUSH1 0x20 SWAP1 DUP2 MSTORE PUSH1 0x40 DUP1 DUP4 KECCAK256 SLOAD DUP4 MSTORE PUSH1 0x8 SWAP1 SWAP2 MSTORE SWAP1 KECCAK256 SLOAD PUSH2 0xC2F SWAP1 DUP5 SWAP1 PUSH2 0x11B3 JUMP JUMPDEST CALLER PUSH1 0x0 DUP2 DUP2 MSTORE PUSH1 0x3 PUSH1 0x20 DUP2 DUP2 MSTORE PUSH1 0x40 DUP1 DUP5 KECCAK256 DUP1 SLOAD DUP6 MSTORE PUSH1 0x8 DUP4 MSTORE DUP2 DUP6 KECCAK256 SWAP7 SWAP1 SWAP7 SSTORE PUSH1 0x10 SLOAD SWAP5 SWAP1 SWAP4 MSTORE SWAP1 DUP2 MSTORE SWAP3 SLOAD DUP2 MLOAD SWAP3 DUP4 MSTORE SWAP3 DUP3 ADD DUP8 SWAP1 MSTORE DUP2 ADD SWAP2 SWAP1 SWAP2 MSTORE PUSH32 0xFE89B83FEE13B689659EA86930AC2A8D7813DE86B42198D5AE4461712A4F8C74 SWAP1 PUSH1 0x60 ADD PUSH1 0x40 MLOAD DUP1 SWAP2 SUB SWAP1 LOG1 POP POP POP POP JUMP JUMPDEST PUSH1 0x9 SLOAD PUSH1 0x1 PUSH1 0x1 PUSH1 0xA0 SHL SUB AND CALLER EQ PUSH2 0xCFA JUMPI PUSH1 0x40 MLOAD PUSH3 0x461BCD PUSH1 0xE5 SHL DUP2 MSTORE PUSH1 0x20 PUSH1 0x4 DUP3 ADD DUP2 SWAP1 MSTORE PUSH1 0x24 DUP3 ADD MSTORE PUSH32 0x4F6E6C79206F776E65722063616E207365742074686573652076616C7565732E PUSH1 0x44 DUP3 ADD MSTORE PUSH1 0x64 ADD PUSH2 0x59E JUMP JUMPDEST PUSH1 0xA SWAP3 SWAP1 SWAP3 SSTORE PUSH1 0xC SSTORE PUSH1 0xD SSTORE JUMP JUMPDEST PUSH1 0x9 SLOAD PUSH1 0x1 PUSH1 0x1 PUSH1 0xA0 SHL SUB AND CALLER EQ PUSH2 0xD70 JUMPI PUSH1 0x40 MLOAD PUSH3 0x461BCD PUSH1 0xE5 SHL DUP2 MSTORE PUSH1 0x20 PUSH1 0x4 DUP3 ADD MSTORE PUSH1 0x25 PUSH1 0x24 DUP3 ADD MSTORE PUSH32 0x4F6E6C792073746F7265206F776E65722063616E206372656174652070726F64 PUSH1 0x44 DUP3 ADD MSTORE PUSH5 0x3AB1BA3997 PUSH1 0xD9 SHL PUSH1 0x64 DUP3 ADD MSTORE PUSH1 0x84 ADD PUSH2 0x59E JUMP JUMPDEST PUSH1 0x0 DUP2 GT PUSH2 0xDC0 JUMPI PUSH1 0x40 MLOAD PUSH3 0x461BCD PUSH1 0xE5 SHL DUP2 MSTORE PUSH1 0x20 PUSH1 0x4 DUP3 ADD DUP2 SWAP1 MSTORE PUSH1 0x24 DUP3 ADD MSTORE PUSH32 0x5468652070726F647563742073686F756C64206861766520612070726963652E PUSH1 0x44 DUP3 ADD MSTORE PUSH1 0x64 ADD PUSH2 0x59E JUMP JUMPDEST PUSH1 0xB SLOAD PUSH2 0xDCE SWAP1 PUSH1 0x1 PUSH2 0x119B JUMP JUMPDEST PUSH1 0xB DUP2 SWAP1 SSTORE PUSH1 0x0 SWAP1 DUP2 MSTORE PUSH1 0xE PUSH1 0x20 SWAP1 DUP2 MSTORE PUSH1 0x40 SWAP1 SWAP2 KECCAK256 DUP4 MLOAD PUSH2 0xDF2 SWAP3 DUP6 ADD SWAP1 PUSH2 0xE49 JUMP JUMPDEST POP PUSH1 0xB DUP1 SLOAD PUSH1 0x0 SWAP1 DUP2 MSTORE PUSH1 0xF PUSH1 0x20 MSTORE PUSH1 0x40 SWAP1 DUP2 SWAP1 KECCAK256 DUP4 SWAP1 SSTORE SWAP1 SLOAD SWAP1 MLOAD PUSH32 0x6BB523B9D31937B9CE037CD5A3401B87D58C1A8CD66C34EF562C226F65DD93AB SWAP2 PUSH2 0xE3D SWAP2 DUP6 SWAP1 DUP6 SWAP1 PUSH2 0x122D JUMP JUMPDEST PUSH1 0x40 MLOAD DUP1 SWAP2 SUB SWAP1 LOG1 POP POP JUMP JUMPDEST DUP3 DUP1 SLOAD PUSH2 0xE55 SWAP1 PUSH2 0x114A JUMP JUMPDEST SWAP1 PUSH1 0x0 MSTORE PUSH1 0x20 PUSH1 0x0 KECCAK256 SWAP1 PUSH1 0x1F ADD PUSH1 0x20 SWAP1 DIV DUP2 ADD SWAP3 DUP3 PUSH2 0xE77 JUMPI PUSH1 0x0 DUP6 SSTORE PUSH2 0xEBD JUMP JUMPDEST DUP3 PUSH1 0x1F LT PUSH2 0xE90 JUMPI DUP1 MLOAD PUSH1 0xFF NOT AND DUP4 DUP1 ADD OR DUP6 SSTORE PUSH2 0xEBD JUMP JUMPDEST DUP3 DUP1 ADD PUSH1 0x1 ADD DUP6 SSTORE DUP3 ISZERO PUSH2 0xEBD JUMPI SWAP2 DUP3 ADD JUMPDEST DUP3 DUP2 GT ISZERO PUSH2 0xEBD JUMPI DUP3 MLOAD DUP3 SSTORE SWAP2 PUSH1 0x20 ADD SWAP2 SWAP1 PUSH1 0x1 ADD SWAP1 PUSH2 0xEA2 JUMP JUMPDEST POP PUSH2 0xEC9 SWAP3 SWAP2 POP PUSH2 0xECD JUMP JUMPDEST POP SWAP1 JUMP JUMPDEST JUMPDEST DUP1 DUP3 GT ISZERO PUSH2 0xEC9 JUMPI PUSH1 0x0 DUP2 SSTORE PUSH1 0x1 ADD PUSH2 0xECE JUMP JUMPDEST PUSH1 0x0 PUSH1 0x20 DUP3 DUP5 SUB SLT ISZERO PUSH2 0xEF4 JUMPI PUSH1 0x0 DUP1 REVERT JUMPDEST DUP2 CALLDATALOAD PUSH1 0x1 PUSH1 0x1 PUSH1 0xA0 SHL SUB DUP2 AND DUP2 EQ PUSH2 0xF0B JUMPI PUSH1 0x0 DUP1 REVERT JUMPDEST SWAP4 SWAP3 POP POP POP JUMP JUMPDEST PUSH1 0x0 PUSH1 0x20 DUP3 DUP5 SUB SLT ISZERO PUSH2 0xF24 JUMPI PUSH1 0x0 DUP1 REVERT JUMPDEST POP CALLDATALOAD SWAP2 SWAP1 POP JUMP JUMPDEST PUSH1 0x0 DUP2 MLOAD DUP1 DUP5 MSTORE PUSH1 0x0 JUMPDEST DUP2 DUP2 LT ISZERO PUSH2 0xF51 JUMPI PUSH1 0x20 DUP2 DUP6 ADD DUP2 ADD MLOAD DUP7 DUP4 ADD DUP3 ADD MSTORE ADD PUSH2 0xF35 JUMP JUMPDEST DUP2 DUP2 GT ISZERO PUSH2 0xF63 JUMPI PUSH1 0x0 PUSH1 0x20 DUP4 DUP8 ADD ADD MSTORE JUMPDEST POP PUSH1 0x1F ADD PUSH1 0x1F NOT AND SWAP3 SWAP1 SWAP3 ADD PUSH1 0x20 ADD SWAP3 SWAP2 POP POP JUMP JUMPDEST PUSH1 0x20 DUP2 MSTORE PUSH1 0x0 PUSH2 0xF0B PUSH1 0x20 DUP4 ADD DUP5 PUSH2 0xF2B JUMP JUMPDEST PUSH4 0x4E487B71 PUSH1 0xE0 SHL PUSH1 0x0 MSTORE PUSH1 0x41 PUSH1 0x4 MSTORE PUSH1 0x24 PUSH1 0x0 REVERT JUMPDEST PUSH1 0x0 DUP3 PUSH1 0x1F DUP4 ADD SLT PUSH2 0xFB2 JUMPI PUSH1 0x0 DUP1 REVERT JUMPDEST DUP2 CALLDATALOAD PUSH8 0xFFFFFFFFFFFFFFFF DUP1 DUP3 GT ISZERO PUSH2 0xFCD JUMPI PUSH2 0xFCD PUSH2 0xF8B JUMP JUMPDEST PUSH1 0x40 MLOAD PUSH1 0x1F DUP4 ADD PUSH1 0x1F NOT SWAP1 DUP2 AND PUSH1 0x3F ADD AND DUP2 ADD SWAP1 DUP3 DUP3 GT DUP2 DUP4 LT OR ISZERO PUSH2 0xFF5 JUMPI PUSH2 0xFF5 PUSH2 0xF8B JUMP JUMPDEST DUP2 PUSH1 0x40 MSTORE DUP4 DUP2 MSTORE DUP7 PUSH1 0x20 DUP6 DUP9 ADD ADD GT ISZERO PUSH2 0x100E JUMPI PUSH1 0x0 DUP1 REVERT JUMPDEST DUP4 PUSH1 0x20 DUP8 ADD PUSH1 0x20 DUP4 ADD CALLDATACOPY PUSH1 0x0 PUSH1 0x20 DUP6 DUP4 ADD ADD MSTORE DUP1 SWAP5 POP POP POP POP POP SWAP3 SWAP2 POP POP JUMP JUMPDEST PUSH1 0x0 DUP1 PUSH1 0x0 PUSH1 0x60 DUP5 DUP7 SUB SLT ISZERO PUSH2 0x1043 JUMPI PUSH1 0x0 DUP1 REVERT JUMPDEST DUP4 CALLDATALOAD PUSH8 0xFFFFFFFFFFFFFFFF DUP1 DUP3 GT ISZERO PUSH2 0x105B JUMPI PUSH1 0x0 DUP1 REVERT JUMPDEST PUSH2 0x1067 DUP8 DUP4 DUP9 ADD PUSH2 0xFA1 JUMP JUMPDEST SWAP5 POP PUSH1 0x20 DUP7 ADD CALLDATALOAD SWAP4 POP PUSH1 0x40 DUP7 ADD CALLDATALOAD SWAP2 POP DUP1 DUP3 GT ISZERO PUSH2 0x1084 JUMPI PUSH1 0x0 DUP1 REVERT JUMPDEST POP PUSH2 0x1091 DUP7 DUP3 DUP8 ADD PUSH2 0xFA1 JUMP JUMPDEST SWAP2 POP POP SWAP3 POP SWAP3 POP SWAP3 JUMP JUMPDEST PUSH4 0x4E487B71 PUSH1 0xE0 SHL PUSH1 0x0 MSTORE PUSH1 0x21 PUSH1 0x4 MSTORE PUSH1 0x24 PUSH1 0x0 REVERT JUMPDEST PUSH1 0x20 DUP2 ADD PUSH1 0x3 DUP4 LT PUSH2 0x10D3 JUMPI PUSH4 0x4E487B71 PUSH1 0xE0 SHL PUSH1 0x0 MSTORE PUSH1 0x21 PUSH1 0x4 MSTORE PUSH1 0x24 PUSH1 0x0 REVERT JUMPDEST SWAP2 SWAP1 MSTORE SWAP1 JUMP JUMPDEST PUSH1 0x0 DUP1 PUSH1 0x0 PUSH1 0x60 DUP5 DUP7 SUB SLT ISZERO PUSH2 0x10EE JUMPI PUSH1 0x0 DUP1 REVERT JUMPDEST POP POP DUP2 CALLDATALOAD SWAP4 PUSH1 0x20 DUP4 ADD CALLDATALOAD SWAP4 POP PUSH1 0x40 SWAP1 SWAP3 ADD CALLDATALOAD SWAP2 SWAP1 POP JUMP JUMPDEST PUSH1 0x0 DUP1 PUSH1 0x40 DUP4 DUP6 SUB SLT ISZERO PUSH2 0x1118 JUMPI PUSH1 0x0 DUP1 REVERT JUMPDEST DUP3 CALLDATALOAD PUSH8 0xFFFFFFFFFFFFFFFF DUP2 GT ISZERO PUSH2 0x112F JUMPI PUSH1 0x0 DUP1 REVERT JUMPDEST PUSH2 0x113B DUP6 DUP3 DUP7 ADD PUSH2 0xFA1 JUMP JUMPDEST SWAP6 PUSH1 0x20 SWAP5 SWAP1 SWAP5 ADD CALLDATALOAD SWAP5 POP POP POP POP JUMP JUMPDEST PUSH1 0x1 DUP2 DUP2 SHR SWAP1 DUP3 AND DUP1 PUSH2 0x115E JUMPI PUSH1 0x7F DUP3 AND SWAP2 POP JUMPDEST PUSH1 0x20 DUP3 LT DUP2 EQ ISZERO PUSH2 0x117F JUMPI PUSH4 0x4E487B71 PUSH1 0xE0 SHL PUSH1 0x0 MSTORE PUSH1 0x22 PUSH1 0x4 MSTORE PUSH1 0x24 PUSH1 0x0 REVERT JUMPDEST POP SWAP2 SWAP1 POP JUMP JUMPDEST PUSH4 0x4E487B71 PUSH1 0xE0 SHL PUSH1 0x0 MSTORE PUSH1 0x11 PUSH1 0x4 MSTORE PUSH1 0x24 PUSH1 0x0 REVERT JUMPDEST PUSH1 0x0 DUP3 NOT DUP3 GT ISZERO PUSH2 0x11AE JUMPI PUSH2 0x11AE PUSH2 0x1185 JUMP JUMPDEST POP ADD SWAP1 JUMP JUMPDEST PUSH1 0x0 DUP3 DUP3 LT ISZERO PUSH2 0x11C5 JUMPI PUSH2 0x11C5 PUSH2 0x1185 JUMP JUMPDEST POP SUB SWAP1 JUMP JUMPDEST PUSH1 0x0 DUP2 PUSH1 0x0 NOT DIV DUP4 GT DUP3 ISZERO ISZERO AND ISZERO PUSH2 0x11E4 JUMPI PUSH2 0x11E4 PUSH2 0x1185 JUMP JUMPDEST POP MUL SWAP1 JUMP JUMPDEST PUSH1 0x0 DUP3 PUSH2 0x1206 JUMPI PUSH4 0x4E487B71 PUSH1 0xE0 SHL PUSH1 0x0 MSTORE PUSH1 0x12 PUSH1 0x4 MSTORE PUSH1 0x24 PUSH1 0x0 REVERT JUMPDEST POP DIV SWAP1 JUMP JUMPDEST PUSH1 0x0 PUSH1 0x20 DUP3 DUP5 SUB SLT ISZERO PUSH2 0x121D JUMPI PUSH1 0x0 DUP1 REVERT JUMPDEST DUP2 MLOAD DUP1 ISZERO ISZERO DUP2 EQ PUSH2 0xF0B JUMPI PUSH1 0x0 DUP1 REVERT JUMPDEST DUP4 DUP2 MSTORE PUSH1 0x60 PUSH1 0x20 DUP3 ADD MSTORE PUSH1 0x0 PUSH2 0x1246 PUSH1 0x60 DUP4 ADD DUP6 PUSH2 0xF2B JUMP JUMPDEST SWAP1 POP DUP3 PUSH1 0x40 DUP4 ADD MSTORE SWAP5 SWAP4 POP POP POP POP JUMP INVALID LOG2 PUSH5 0x6970667358 0x22 SLT KECCAK256 SMOD 0xD9 STATICCALL CALLDATASIZE 0xD0 DUP14 0xD7 PUSH31 0xCA1358EFE3D2121F05A2423679C97FAE387E0FB356B36AC464736F6C634300 ADDMOD EXP STOP CALLER ","sha1":"15f04a52b486b293c450132ce36894c41fe32e9e","source":"//SPDX-License-Identifier: MIT\n\npragma solidity ^0.8.0;\n\nimport \"./bean.sol\";\n\ncontract Cryptobucks {\n    // Token Contract\n    Bean bean;\n    // Incinerator\n    address public incinerator;\n    // user data\n    uint256 public userCount;\n    mapping (address => uint256) public userToId;\n    mapping (uint256 => address) public useridToUserAddress;\n    mapping (uint256 => string) public userIdToName;\n    mapping (uint256 => uint256) public userIdToPhone;\n    mapping (uint256 => string) public userIdToLocation;\n    mapping (uint256 => uint256) public userIdToDiscount;\n\n    // store data\n    address payable owner;\n    uint256 public collateral; // multiplier to product price. If price = 5eth, collateral = 2, then user pays 10eth and 5eth is refunded on fulfillment.\n    uint256 public productCount;\n    uint256 public discountPerToken; // % discount in eth per token. If price = 5eth, tokens redeemed = 2, discount = 10% then user pays 5 - 2*0.1 = 4.8 eth.\n    uint256 public tokenPerUnitPrice; // %age\n    mapping (uint256 => string) public productIdToName;\n    mapping (uint256 => uint256) public productIdToPrice;\n\n    // orders\n    uint256 public orderCount;\n    enum OrderStatus {\n        UNPLACED, LIVE, FULFILLED\n    }\n    mapping(uint256 => uint256) public orderIdToProductId;\n    mapping(uint256 => OrderStatus) public orderIdTostatus;\n    mapping(uint256 => uint256) public orderIdTouserId;\n\n    // events\n    event productCreated (uint256 productId, string productName, uint256 productPrice);\n    event userCreated (address user, uint256 userId);\n    event orderPlaced (uint256 orderId, uint256 productId, uint256 userId);\n    event orderFulfilled (uint256 orderId);\n\n    constructor(address _beanAddress, address _incinerator) {\n        userCount = 0;\n        bean = Bean(_beanAddress);\n        productCount = 0;\n        owner = payable(msg.sender);\n        orderCount = 0;        \n        incinerator = _incinerator;\n        \n    }\n\n    function setStoreData ( uint256 _collateral, uint256 _discount, uint256 _tokenPerUnit) public {\n        require (msg.sender == owner, \"Only owner can set these values.\");\n        collateral = _collateral;\n        discountPerToken = _discount;\n        tokenPerUnitPrice = _tokenPerUnit;\n    }\n\n    function createProduct (string memory _name, uint256 _price) public {\n        require (msg.sender == owner, \"Only store owner can create products.\");\n        require (_price > 0, \"The product should have a price.\");\n        productCount = productCount + 1;\n        productIdToName[productCount] = _name;\n        // price in wei.\n        productIdToPrice[productCount] = _price;\n        emit productCreated(productCount, _name, _price);\n    }\n\n    function userSignUp (string memory _name, uint256 _phoneNumber, string memory _location) public {\n        require (userToId[msg.sender] <= 0, \"User already exists\");\n        userCount = userCount + 1;\n        userToId[msg.sender] = userCount;\n        useridToUserAddress[userCount] = msg.sender;\n        userIdToName[userCount] = _name;\n        userIdToPhone[userCount] = _phoneNumber;\n        userIdToLocation[userCount] = _location;\n        emit userCreated(msg.sender, userCount);\n    }\n\n    function redeemTokens (uint256 _tokenNumber) public {\n        bean.transferFrom(msg.sender, incinerator,  _tokenNumber);\n        uint256 discountEarned = discountPerToken * _tokenNumber / 100;\n        userIdToDiscount[userToId[msg.sender]] = userIdToDiscount[userToId[msg.sender]] + discountEarned;\n    }\n\n    function placeOrder (uint256 _productId) public payable {\n        require (userToId[msg.sender] > 0, \"User doesn't exist. Please sign up.\");\n        require (productIdToPrice[_productId] > 0, \"Product doesn't exist.\");\n        uint256 availableDiscount = userIdToDiscount[userToId[msg.sender]];\n        if (availableDiscount > productIdToPrice[_productId]) {\n            availableDiscount = productIdToPrice[_productId];\n        }\n        uint256 priceAfterDiscount = productIdToPrice[_productId] - availableDiscount;\n        uint256 priceWithCollateral = priceAfterDiscount + (collateral - 1) * productIdToPrice[_productId];\n        require (msg.value >= priceWithCollateral, \"Amount less than product price.\");\n        orderCount = orderCount + 1;\n        orderIdToProductId[orderCount] = _productId;\n        orderIdTostatus[orderCount] = OrderStatus.LIVE;\n        orderIdTouserId[orderCount] = userToId[msg.sender];\n        owner.transfer(priceAfterDiscount);\n        userIdToDiscount[userToId[msg.sender]] = userIdToDiscount[userToId[msg.sender]] - availableDiscount;\n        emit orderPlaced(orderCount, _productId, userToId[msg.sender]);       \n    }\n\n    function fulfillOrder (uint256 _orderId) public payable {\n        require (orderIdTostatus[_orderId] == OrderStatus.LIVE, \"Cannot fulfill an unplaced order.\");\n        require (useridToUserAddress[orderIdTouserId[_orderId]] == msg.sender, \"You did not place this order.\");\n        orderIdTostatus[_orderId] = OrderStatus.FULFILLED;\n        uint256 remainingAmount = (collateral - 1) * productIdToPrice[orderIdToProductId[_orderId]];\n        payable(msg.sender).transfer(remainingAmount);\n        uint256 tokenReward = tokenPerUnitPrice * productIdToPrice[orderIdToProductId[_orderId]] / 100;\n        bean.transfer(msg.sender, tokenReward);\n        emit orderFulfilled(_orderId);\n    }   \n\n\n}","sourcePath":"contracts/cryptobucks.sol","type":"contract"}